S01300004C6564426C696E6B696E672E73726563CE
SG13800000300020C98600006B8600009F860000B7
S1138010000000000000000000000000000000005C
S1138020000000000000000000000000278700009E
S1138030000000000000000033870000DD8700001E
S1138040718700007987000081870000898700001C
S1138050D1870000D1870000D1870000D1870000BC
S11380609187000099870000A1870000A98700007C
S1138070B1870000B9870000C1870000D1870000E4
S1138080D1870000D1870000D1870000D18700008C
S1138090D1870000D1870000D1870000C987000084
S11380A0D1870000D1870000D1870000D18700006C
S11380B0D1870000D1870000D1870000D18700005C
S1138400FFFFFFFFFFFFFFFFFFFFFFFFFEFFFFFF79
S113841080B500F004F8584800F09FF8FEE710B566
S1138420564800688021890001435448016054483B
S113843000688021C9000143514801605148006827
S113844050490860504800688021C90401434E48DF
S113845001604E4800688021890001434B48016057
S11384604B4800688021890001434948016049481C
S11384700078FB2101404748017046480078F72105
S1138480014044480170E12149024348006800F07A
S11384903DF8040040480068A4B2E1214902614368
S11384A000F08CF8401E3D490870A4B22012C006AA
S11384B0C00E3B4908703B4804703B480078EF21EC
S11384C001403948017035480078DF2101403348C4
S11384D0017036480078EF21014034480170344877
S11384E00078EF210140324801702F4800782E496E
S11384F0087028480078082101432648017025485F
S11385000078042101432348017010BDFCB5040028
S11385100D0004261BE020002900F6B2714300F090
S11385204DF807002000F6B23100FFB2794300F0A5
S113853045F8F6B2042E00D10090411B009A521B5C
S1138540914203D2FFB269468F800090761CF6B246
S1138550212EE0DB68468088F6BD00B507E01549AA
S113856009780906FBD50178134A1170401C01787B
S11385700029F4D100BD0000488700003880044081
S1138580348004401080044004800440049004407B
S11385900890044003A0064000F0FF1F0AA0064014
S11385A000A0064001A0064002A0064005A0064027
S11385B006A0064004A0064007A006400022030AC5
S11385C08B420BD203098B4219D243088B422ED221
S11385D0411A00D20146524110467047FF22090257
S11385E03FD012068B4205D3121209028B4201D3EB
S11385F01212090203098B4219D300E0090AC309C4
S11386008B4201D3CB01C01A524183098B4201D35F
S11386108B01C01A524143098B4201D34B01C01A4A
S1138620524103098B4201D30B01C01A5241C308C2
S11386308B4201D3CB00C01A524183088B4201D331
S11386408B00C01A524143088B4201D34B00C01A1D
S11386505241884200D3401A5241CFD201461046BB
S1138660704708B500F002F808BDFEE7704730B463
S113867001210268001D002A0FD00368C318446852
S113868008300C4202D04D466D1E64191D682560E9
S11386901B1D241D121FECD0F8E730BC7047FEE709
S11386A010B5074979441831064C7C44163404E06B
S11386B0081D0A68891888470100A142F8D110BD35
S11386C02C0000003C00000072B60448044901601C
S11386D00448804762B604480047000008ED00E003
S11386E000800000598700006587000083FFFFFFBA
S11386F004000000E400000000F0FF1F0000000080
S113870000F00BF8002801D0FFF7CAFF002000BFDB
S113871000BFFFF77DFE00F002F80120704780B52E
S113872000F002F801BDFEE70746384600F002F803
S1138730FBE7FEE780B500BF00BF024A1100182026
S1138740ABBEFBE72600020048656C6C6F20776FB8
S1138750726C640A00000000002001490860704740
S11387600081044000BF00BF00BF00BFFFF7C8FF87
S113877000480047D187000000480047D187000027
S113878000480047D187000000480047D187000017
S113879000480047D187000000480047D187000007
S11387A000480047D187000000480047D1870000F7
S11387B000480047D187000000480047D1870000E7
S11387C000480047D187000000480047D1870000D7
S11187D000480047D187000000004001FEE78A
S903876510
