S02B0000443A2F746D702F64656D6F5F6170702F61726D6763632F64656275672F64656D6F5F6170702E737209
S113000000600020E9040000F9040000F904000085
S113001000000000000000000000000000000000DC
S1130020000000000000000000000000F9040000CF
S11300300000000000000000F90400004108000076
S1130040F9040000F9040000F9040000F9040000B8
S1130050F9040000F9040000F9040000F9040000A8
S1130060F9040000F9040000F9040000F904000098
S1130070F9040000F9040000F9040000F904000088
S1130080F9040000F9040000F9040000F904000078
S1130090F9040000F9040000F9040000F904000068
S11300A0F9040000F9040000F9040000F904000058
S11300B0F9040000F9040000F904000099070000A5
S1130400FFFFFFFFFFFFFFFFFFFFFFFFFEFFFFFFF9
S113041010B5064C2378002B07D1054B002B02D0D6
S1130420044800E000BF0123237010BD6CE0FF1FEF
S113043000000000D00D0000084B10B5002B03D0C5
S11304400749084800E000BF07480368002B00D1B3
S113045010BD064B002BFBD09847F9E700000000C5
S113046070E0FF1FD00D000068E0FF1F00000000D7
S1130470164B002B00D1144B9D46402292029A1A2F
S1130480924600218B460F461348144A121A00F074
S11304907FFC0F4B002B00D098470E4B002B00D055
S11304A098470020002104000D000D48002802D0C8
S11304B00C4800E000BF00F047FC2000290000F0D9
S11304C087FA00F02BFCC046000008000060002002
S11304D000000000000000006CE0FF1F90E0FF1F20
S11304E0000000000000000072B600F0A7FB00F05E
S11304F0B1FB62B6FFF7BCFF00480047F9040000F7
S1130500002243088B4274D303098B425FD3030A4E
S11305108B4244D3030B8B4228D3030C8B420DD361
S1130520FF22090212BA030C8B4202D312120902EF
S113053065D0030B8B4219D300E0090AC30B8B422D
S113054001D3CB03C01A5241830B8B4201D38B03DB
S1130550C01A5241430B8B4201D34B03C01A524180
S1130560030B8B4201D30B03C01A5241C30A8B42C3
S113057001D3CB02C01A5241830A8B4201D38B02AE
S1130580C01A5241430A8B4201D34B02C01A524152
S1130590030A8B4201D30B02C01A5241CDD2C309C4
S11305A08B4201D3CB01C01A524183098B4201D340
S11305B08B01C01A524143098B4201D34B01C01A2B
S11305C0524103098B4201D30B01C01A5241C308A3
S11305D08B4201D3CB00C01A524183088B4201D312
S11305E08B00C01A524143088B4201D34B00C01AFE
S11305F05241411A00D20146524110467047FFE76A
S113060001B5002000F006F802BDC0460029F7D06D
S113061076E770477047C04680B582B000AF0200ED
S1130620FB1D1A70064BFA1D127811001F220A4096
S1130630012191400A001A60C046BD4602B080BD47
S113064000E100E080B582B000AF0200FB1D1A702B
S11306500749FB1D1B781A001F23134001229A40EF
S1130660C0235B00CA50C046BD4602B080BDC04630
S113067000E100E0B0B582B000AF02003960FB1DBC
S11306801A70FB1D1B787F2B32D92F4CFB1D1B7856
S11306901A000F231340083B99082B4AFB1D1B78B3
S11306A018000F230340083B9B0806339B00D31814
S11306B004331B68FA1D1278100003220240D20092
S11306C0FF2090400200D2431A403B689B01FF2068
S11306D01840FB1D1B781D0003232B40DB009840B2
S11306E003001A438B1D9B00E31804331A6027E0B0
S11306F0164CFB1D1B785BB29B081449FA1D12783B
S113070052B29208C03292005258F91D097808007A
S113071003210140C900FF2088400100C943114062
S11307203A689201FF201040FA1D12781500032246
S11307302A40D200904002000A43C0339B001A5161
S1130740C046BD4602B0B0BD00ED00E000E100E0EF
S113075080B582B000AF78607B68013B0C4A93425D
S113076001D9012310E00B4B7A68013A5A60012346
S11307705B4203211800FFF77DFF064B00229A60BD
S1130780044B07221A6000231800BD4602B080BD46
S1130790FFFFFF0010E000E080B500AF244B032111
S11307A0180000F03AFA031E0DD0214B0321180063
S11307B000F01EFA1F4B00220521180000F0DAF9A0
S11307C01D4B00221A601A4B0C21180000F025FA68
S11307D0031E2AD0164B0C21180000F009FA174BFF
S11307E01B785A1E9341DBB201225340DBB21A1C20
S11307F001231340DAB2114B1A70104B1B78002BF3
S113080009D00D4B00221A600A4B00220521180062
S113081000F0B0F909E0084B012252421A60054B7E
S113082001220521180000F0A5F9C046BD4680BD8F
S113083000B00440C0F00F4000E0FF1F8CE0FF1F39
S113084080B500AF294B1B685A1C284B1A60284BF3
S11308501B68002B04DB264B1B685A1C244B1A60B4
S1130860224B1A68FA239B009A4205D1214B00229D
S11308701D21180000F07EF91C4B1B681E4A934290
S113088008DD1C4B01221D21180000F073F9174BE1
S113089000221A60164B1B68184A934210DD184B4D
S11308A01B7801225340DBB2002B09D0154B0122E7
S11308B00521180000F05EF90D4B012252421A6026
S11308C00B4B1A68FA235B009A420BD10C4B1B7832
S11308D0002B07D00B4B0521180000F074F9044BD2
S11308E000221A60C046BD4680BDC04688E0FF1F96
S11308F000E0FF1F00F10F40AF040000B70B000041
S11309008CE0FF1FC0F00F4080B500AFC046BD466D
S113091080BD000080B500AF01220521032000F056
S11309205FF801221D21042000F05AF8002203215F
S1130930022000F055F800220C21022000F050F8AB
S11309401F4B01221D21180000F014F91D4B012238
S11309500521180000F00EF91B4B1A68FA239900C0
S11309601000FFF7CDFD03001800FFF7F1FE031E92
S11309700CD0134B00221D21180000F0FBF8114B82
S113098001220521180000F0F5F817E00F4B0F4A7B
S1130990D268902109030A43DA600C4B0B4A126BAC
S11309A0902109030A431A631F20FFF74BFE1F20FF
S11309B0FFF732FE00211F20FFF75CFEBD4680BD1D
S11309C000F10F40C0F00F4004E0FF1F00B00440EE
S11309D080B500AFFFF79EFFFFF796FFFCE700002E
S11309E090B58DB000AF040008001100FB1D221C5F
S11309F01A70BB1D021C1A707B1D0A1C1A701C2362
S1130A00FB18574A13CA13C303CA03C30823FB18AA
S1130A10544A13CA13C303CA03C35349524A534B18
S1130A20D358FA1D12780932012090400200134372
S1130A304E4A8B50FB1D1B78002B04D0FB1D1B78EA
S1130A40042B00D987E0FB1D1A781C23FB189200A5
S1130A50D358BA1D1278F91D08781C217918800022
S1130A604158B81D00788000415841480140920027
S1130A70D150FB1D1A781C23FB189200D358BA1DC1
S1130A801278F91D08781C21791880004158B81D86
S1130A900078800041588020400001439200D150EA
S1130AA07B1D1B78012B14D1FB1D1A780823FB181E
S1130AB09200D358FA1D11780822BA1889008A586E
S1130AC05269B91D09780120884001000A435A611E
S1130AD042E0FB1D1A780823FB189200D358FA1D34
S1130AE011780822BA1889008A585269B91D097800
S1130AF0012088400100C9430A405A61FB1D1A784D
S1130B001C23FB189200D358BA1D1278F91D0878DB
S1130B101C21791880004158B81D00788000415884
S1130B20022001439200D150FB1D1A781C23FB18AC
S1130B309200D358BA1D1278F91D08781C2179182F
S1130B4080004158B81D00788000415801200143BD
S1130B509200D15000E0C046BD460DB090BDC046E5
S1130B60A40D0000B80D000000700440381000000F
S1130B70FFF8FFFF80B582B000AF78600800110075
S1130B80FB1C021C1A70BB1C0A1C1A70BB1C1B78B1
S1130B90002B0AD17B689B68FA1C127801219140D2
S1130BA00A001A437B689A6009E07B685B68FA1C58
S1130BB01278012191400A001A437B685A60C046AA
S1130BC0BD4602B080BD80B582B000AF78600A0037
S1130BD0FB1C1A707B68DB68FA1C127801219140B7
S1130BE00A001A437B68DA60C046BD4602B080BD85
S1130BF080B582B000AF786039607B683A68920053
S1130C00D358802252041A4311007B683A68920038
S1130C10D150C046BD4602B080BD80B582B000AFA1
S1130C20786039607B683A689200D25880235B040C
S1130C3013401800BD4602B080BD000080B500AF6F
S1130C40034A88235B010021D150C046BD4680BDC4
S1130C500070044080B588B000AF274BFB60274A82
S1130C60274B9A4216D00023FB610AE0244BFA6911
S1130C709200D158214BFA699200D150FB6901339B
S1130C80FB61FB689A08FB699A42EFD81D4B1B4A2B
S1130C909A6002E01B4B1A4A9A601B4BBB611B4BC8
S1130CA07B611B4BBB60BA687B69D31AFB6107E0AD
S1130CB0BB695A1CBA617A69511C796112781A703D
S1130CC0FB695A1EFA61002BF2D1124B3B61124BA5
S1130CD07B607A683B69D31AFB6104E03B695A1C68
S1130CE03A6100221A70FB695A1EFA61002BF5D191
S1130CF0C046BD4608B080BD0000000000000000F2
S1130D000000000000ED00E000E0FF1FF80D00000F
S1130D10640E00006CE0FF1F90E0FF1F084B10B54D
S1130D200400002B02D0002100E000BF054B18682E
S1130D30836A002B00D09847200000F031F8C046A9
S1130D4000000000CC0D000070B500260C4D0D4CC9
S1130D50641BA410A64209D1002600F039F80A4DFC
S1130D600A4C641BA410A64205D170BDB300EB5815
S1130D7098470136EEE7B300EB5898470136F2E79F
S1130D80F00D0000F00D0000F00D0000F40D000067
S1130D9003008218934200D1704719700133F9E7B8
S1130DA0FEE7C0460090044000A0044000B00440A8
S1130DB000C0044000D0044000F00F4040F00F4059
S1130DC080F00F40C0F00F4000F10F4008E0FF1F1B
S1130DD0F8B5C046F8BC08BC9E467047F8B5C04696
S10B0DE0F8BC08BC9E467047F4
S10B0DE888F6FF7F0100000002
S1070DF039040000BE
S1070DF411040000E2
S1130DF8FFFFFFFF000040010000000000000000AA
S1130E0800000000000000000000000000000000D6
S1130E1800000000000000000000000000000000C6
S1130E2800000000000000000000000000000000B6
S1130E3800000000000000000000000000000000A6
S1130E480000000000000000000000000000000096
S10F0E580000000000000000000000008A
S90304E90F
