S02B0000443A2F73636D2F6B686F616876314066736F66742E636F6D2E766E2F46525F454D425F484E31375F6C
S113A00000600020E9A40000F9A40000F9A4000005
S113A010000000000000000000000000000000003C
S113A020000000000000000000000000F9A400008F
S113A0300000000000000000F9A40000A9A5000031
S113A040F9A40000F9A40000F9A40000F9A4000098
S113A050F9A40000F9A40000F9A40000F9A4000088
S113A060F9A40000F9A40000F9A40000F9A4000078
S113A070F9A40000F9A40000F9A40000F9A4000068
S113A080F9A40000F9A40000F9A40000F9A4000058
S113A090F9A40000F9A40000F9A40000F9A4000048
S113A0A0F9A40000F9A40000F9A40000F9A4000038
S113A0B0F9A40000F9A40000F9A4000001A500001F
S113A400FFFFFFFFFFFFFFFFFFFFFFFFFEFFFFFF59
S113A41010B5064C2378002B07D1054B002B02D036
S113A420044800E000BF0123237010BD68E0FF1F53
S113A43000000000B8A80000084B10B5002B03D0A2
S113A4400749084800E000BF07480368002B00D113
S113A45010BD064B002BFBD09847F9E70000000025
S113A4606CE0FF1FB8A8000064E0FF1F00000000BC
S113A470164B002B00D1144B9D46402292029A1A8F
S113A480924600218B460F461348144A121A00F0D4
S113A49007FA0F4B002B00D098470E4B002B00D02F
S113A4A098470020002104000D000D48002802D028
S113A4B00C4800E000BF00F0CFF92000290000F0B4
S113A4C0DCF800F0B3F9C04600000800006000208A
S113A4D0000000000000000068E0FF1F8CE0FF1F88
S113A4E0000000000000000072B600F02FF900F038
S113A4F039F962B6FFF7BCFF00480047F9A4000031
S113A50080B500AF244B0321180000F00EF9031EA0
S113A5100DD0214B0321180000F0F2F81F4B00224C
S113A5200521180000F0AEF81D4B00221A601A4BEA
S113A5300C21180000F0F9F8031E2AD0164B0C2148
S113A540180000F0DDF8174B1B785A1E9341DBB25C
S113A55001225340DBB21A1C01231340DAB2114B1F
S113A5601A70104B1B78002B09D00D4B00221A6077
S113A5700A4B00220521180000F084F809E0084B7A
S113A580012252421A60054B01220521180000F0F5
S113A59079F8C046BD4680BD00B00440C0F00F400D
S113A5A000E0FF1F88E0FF1F80B500AF294B1B6848
S113A5B05A1C284B1A60284B1B68002B04DB264BC3
S113A5C01B685A1C244B1A60224B1A68FA239B00FE
S113A5D09A4205D1214B00221D21180000F052F8A7
S113A5E01C4B1B681E4A934208DD1C4B01221D2193
S113A5F0180000F047F8174B00221A60164B1B682E
S113A600184A934210DD184B1B7801225340DBB2E9
S113A610002B09D0154B01220521180000F032F857
S113A6200D4B012252421A600B4B1A68FA235B004D
S113A6309A420BD10C4B1B78002B07D00B4B0521F6
S113A640180000F048F8044B00221A60C046BD46CA
S113A65080BDC04684E0FF1F00E0FF1F00F10F40F3
S113A660AF040000B70B000088E0FF1FC0F00F40EC
S113A67080B500AFC046BD4680BD80B500AFFFF7D2
S113A680F7FFFCE780B582B000AF786008001100E6
S113A690FB1C021C1A70BB1C0A1C1A70BB1C1B7806
S113A6A0002B0AD17B689B68FA1C12780121914027
S113A6B00A001A437B689A6009E07B685B68FA1CAD
S113A6C01278012191400A001A437B685A60C046FF
S113A6D0BD4602B080BD80B582B000AF78600A008C
S113A6E0FB1C1A707B68DB68FA1C1278012191400C
S113A6F00A001A437B68DA60C046BD4602B080BDDA
S113A70080B582B000AF786039607B683A689200A7
S113A710D358802252041A4311007B683A6892008D
S113A720D150C046BD4602B080BD80B582B000AFF6
S113A730786039607B683A689200D25880235B0461
S113A74013401800BD4602B080BD000080B500AFC4
S113A750034A88235B010021D150C046BD4680BD19
S113A7600070044080B588B000AF274BFB60274AD7
S113A770274B9A4216D00023FB610AE0244BFA6966
S113A7809200D158214BFA699200D150FB690133F0
S113A790FB61FB689A08FB699A42EFD81D4B1B4A80
S113A7A09A6002E01B4B1A4A9A601B4BBB611B4B1D
S113A7B07B611B4BBB60BA687B69D31AFB6107E002
S113A7C0BB695A1CBA617A69511C796112781A7092
S113A7D0FB695A1EFA61002BF2D1124B3B61124BFA
S113A7E07B607A683B69D31AFB6104E03B695A1CBD
S113A7F03A6100221A70FB695A1EFA61002BF5D1E6
S113A800C046BD4608B080BD0000000000A00000A6
S113A81000A0000000ED00E000E0FF1FE0A8000041
S113A82048A9000068E0FF1F8CE0FF1F084B10B52B
S113A8300400002B02D0002100E000BF054B186883
S113A840836A002B00D09847200000F031F8C046FE
S113A85000000000B4A8000070B500260C4D0D4C9B
S113A860641BA410A64209D1002600F025F80A4D65
S113A8700A4C641BA410A64205D170BDB300EB586A
S113A88098470136EEE7B300EB5898470136F2E7F4
S113A890D8A80000D8A80000D8A80000DCA80000B0
S113A8A003008218934200D1704719700133F9E70D
S113A8B0FEE7C04604E0FF1FF8B5C046F8BC08BC7C
S113A8C09E467047F8B5C046F8BC08BC9E46704723
S10BA8D0A0FBFF7F0100000062
S107A8D839A400009B
S107A8DC11A40000BF
S113A8E0FFFFFFFF00000000000000000000000068
S113A8F00000000000000000000000000000000054
S113A9000000000000000000000000000000000043
S113A9100000000000000000000000000000000033
S113A9200000000000000000000000000000000023
S113A9300000000000000000000000000000000013
S10BA94000000000000000000B
S903A4E96F
